:1002B2000208005E020A0064020C00000210000143
:0402C200020E000127
:0A024200C292C293D2947F017E00A5
:10024C00D3EF9400EE940040147D707C00ED1D7093
:0D025C00011CED4C70F7EF1F70E61E80E3F3
:010269002272
:0402EF008E128F13C9
:0D02F300E5151515AE14700215144E70F3CC
:0103000022DA
:10001E0012030120A00F30A10C30A20920A306204C
:10002E00965302016220A01330A11020A20D20A32E
:10003E000A2096051202DB80DA803A30A01030A139
:10004E000D20A20A20A3072096028024802730A02C
:10005E001020A10D20A20A20A30720960280118055
:10006E001430A03B30A13830A23520A332209605A3
:10007E001202C7809EC291C292C293C2947F507EDA
:10008E000012024CD291C292C293D2947F1E7E0075
:10009E0012024CC291D292C293D2947F0A806920EE
:1000AE00A00F20A10C30A20920A30612032F0200DC
:1000BE002120A00B20A10820A20530A302801A2027
:1000CE00A00B20A10830A20530A302800C20A00FA7
:1000DE0030A10C30A20930A30612032102002130F8
:1000EE00951530A01230A10F30A20C30A309309616
:1000FE000612033D02002130A01630A11330A210CB
:10010E0030A30D12033D7F037E0012024C0200212C
:10011E0030951520A01220A10F20A20C20A309209B
:10012E00960612026A02002120951120A00E20A12F
:10013E000B20A20820A305309602800630950930C8
:10014E00960612000302002120A00F20A10C20A26F
:10015E000920A3061203110200211203110200212D
:10030100D2AFD2AB758910758DFF758BFFD28E225E
:03001B000201FAE5
:1001FA00C0E0C0D0758DFF758BFF050DE50D70024F
:10020A00050CD39490E50C94014006750C00750D0D
:10021A0000D3E50D9509E50C95085004D2A4800297
:10022A00C2A4D3E50D950BE50C950A5004D2A5801E
:08023A0002C2A5D0D0D0E032D1
:10000300D291C292C293D2947F037E0012024CC259
:0800130091C292C293C2942233
:10026A00C291D292D293C2947F067E0012024CC2ED
:08027A0091C292C293C29422CA
:0E032100D291120242C291C292C293C29422A1
:1002C700C291D292D293C294120248C291C292C2F0
:0402D70093C2942218
:10031100C291D292120244C291C292C293C2942259
:0E032F00C291120242C291C292C293C29422A3
:1002DB00C291D292C293C294120248C291C292C2EC
:0402EB0093C2942204
:09033D00C291C292C293C2942243
:10028200D291C292C293C2947F037E0012024CC2E8
:0802920091C292C293C29422B2
:10029A00C291C292D293C2947F037E0012024CC2D0
:0802AA0091C292C293C294229A
:0300000002016E8C
:0C016E00787FE4F6D8FD7581150201B51C
:10017A0002001EE493A3F8E493A34003F68001F27D
:10018A0008DFF48029E493A3F85407240CC8C33386
:10019A00C4540F4420C8834004F456800146F6DF55
:1001AA00E4800B01020408102040809002B2E47E31
:1001BA00019360BCA3FF543F30E509541FFEE4934A
:1001CA00A360010ECF54C025E060A840B8E493A311
:1001DA00FAE493A3F8E493A3C8C582C8CAC583CA3C
:1001EA00F0A3C8C582C8CAC583CADFE9DEE780BEF4
:0102C6000037
:00000001FF
